:020000009E2C34
:10000800FF00030E83018316B9000A08B8008A01AD
:1000180070088312A0000B1D2A28833081000B1161
:100028008316AB0A0319AC0A80302C06F000803026
:10003800033A7002031D2228E8302B02031C2A28E9
:10004800AB01AC010130AD000030AE0083122008D6
:10005800F000831638088A00390E8300FF0E7F0EE1
:0200680009008D
:10006A00103083120313FD00FD0B3928000008002D
:10007A00083083120313FC002330FD00FD0B4328D4
:06008A00FC0B43280800F6
:040090000000080064
:1000940083160313CC1B5128831287115328831210
:1000A400871583164C1B5928831207115B2883126A
:1000B40007158316CC1A61288312871063288312CC
:1000C400871483164C1A6928831207106B2883122D
:1000D400071483163A18712883120716732883129B
:1000E40007128716482087128316CC197C2883129E
:1000F40087117E288312871583164C19842883124E
:1001040007118628831207158316CC188C288312AE
:1001140087108E288312871483164C189428831210
:10012400071096288312071483163A189C28831202
:1001340007169E28831207128716482087128316F3
:0C0144003A1CA6283D20A7283520080002
:1001500083120313F801F9011030FC00710DF80D42
:10016000F90D7408F8027508031C750FF9020318DD
:10017000C0287408F80775080318750FF9070310ED
:0A018000F00DF10DFC0BAE28080095
:10018A0083160313CA0105304A020318D3284A0802
:10019A004907840020308000CA0AC8284A0849074B
:1001AA0084008001CA034A084907CB000A30F400D8
:1001BA00F5014708F0004808F100A8207808F00087
:1001CA007908F1003030F00783164B088400700874
:1001DA0080000A30F400F5014708F0004808F100F1
:1001EA00A82070088316C7007108C800003071067D
:1001FA00031D012900307006031D04290629CA03BC
:04020A00D8280800E8
:10020E00831603133A104708CC004A2083163A147B
:02021E000800D6
:0E022000073083120313FD00FD0B14290800A4
:10022E008316031387120712071087100711871101
:10023E0083128712071287110711871007103D20AE
:10024E003D203D20871407148716482087123D2035
:10025E008716482087123D208716482087123D209A
:10026E0007108716482087123D20871648208712D0
:10027E00871087158716482087123D20871107148F
:10028E0087164820871207108716482087123D20B0
:10029E0087164820871207148716482087123D209C
:1002AE00071087164820871287150715871407141D
:0E02BE008716482087123D2083163A14080048
:1002CC00C330831203139F056F09F00070089F055C
:1002DC00F03083169F0483129F1783163E08F0009C
:1002EC00F00D7010F00D7010700883129F041F1425
:1002FC0010219F149F1C8429000080291F101E08A8
:10030C00F100F00183161E08F0040030F10408001F
:0E031C008316031330088A002F0882000800A1
:10032A00A729803083160313BE00BA29C030BE0045
:10033A00BA299430BE00BA29D430BE00BA29803016
:10034A00BE00BA29831603133E08013A03199629F7
:10035A003E08023A03199B293E08033A03199E29CB
:10036A003E08043A0319A129A4293F03F0003E08D4
:10037A00F0077008BE007008CC004A2083163A10B5
:10038A00C10141084007840000080319D429410823
:10039A00400784000008C7000721C10AC6293A1489
:0203AA00080049
:1003AC0083160313C301C4013E08C5003F08C600F1
:1003BC0080303F06F00080307002031DE7290030CA
:1003CC003E020318F5290130C3000030C4003E087A
:1003DC00003CC5003F08031C013EC601C60245088F
:1003EC00C7004608C8004008C900C5200630C10037
:1003FC000030C2004208003C031D062A4108003CA4
:10040C000318212A41084007F20001304102F00094
:10041C000030031C013E4202F100700840078400CA
:10042C000008F00072088400700880000130C102DE
:10043C00031CC203002A40088400203080004308BB
:10044C00440403193F2AC101C2014108400784003A
:10045C000008203A031D362AC10A0319C20A2B2AA6
:10046C000130C102031CC2034108400784002D3037
:04047C0080000800F4
:1004800083160313BF013F083E07840000080319C9
:10049000512A3F083E0784000008C7000721BF0A11
:0404A000432A0800E3
:1004A40083160313BF01C0013E08F2003E08F300A7
:1004B400720884000008203A031D652A3F0840049E
:1004C400031D652A722A0130BF000030C000720883
:1004D40084000008F0007308840070088000F30AA8
:1004E4007208F100F20A710884000008003A031D42
:0804F4005A2A3E08F00008003E
:1004FC00013083160313BE000130BF003130C00041
:10050C009521831256088316BE0083125708831652
:10051C00BF00B130C000D621B130BE0052227008ED
:10052C00C0000130BE000630BF0095213630BE0041
:10053C00402283123B08033A031DB32A00305306B2
:10054C00031DAA2A00305206031DB12A0130D20025
:10055C000030D300B32AD201D3013B08043A031D67
:10056C00C32AD401D501D201D30101308316CC00AA
:10057C004A208316A401A501692B0030831253066F
:10058C00031DCA2A00305206031DD52A02308316D9
:10059C00BE000130BF002130C0009521DD2A83163A
:1005AC000230BE000130BF002930C00095218312FB
:1005BC0054088316BE00831255088316BF00B13051
:1005CC00C000D621B130BE0052227008C0000230EB
:1005DC00BE000830BF009521A630BE00402200307E
:1005EC002E06031DFB2A01302D06031D692BAD01C0
:1005FC00AE01003083125306031D062B0030520649
:10060C00031D692BD40A0319D50A80305506F00056
:10061C00803057067002031D152B56085402031C1C
:10062C00692B071701308316CC004A200230831641
:10063C00A4000030A500831287170230FB000430A1
:10064C00FC00BA30FD00FD0B292BFC0B292BFB0BFE
:10065C00292B000087130230FB000430FC00BA3059
:10066C00FD00FD0B372BFC0B372BFB0B372B000046
:10067C0087170230FB000430FC00BA30FD00FD0B84
:10068C00452BFC0B452BFB0B452B00008713023035
:10069C00FB000430FC00BA30FD00FD0B532BFC0BAF
:1006AC00532BFB0B532B000087170230FB0004303D
:1006BC00FC00BA30FD00FD0B612BFC0B612BFB0B1E
:0806CC00612B000087130800F8
:1006D40083160313BD01BE0166217008BB007108B7
:1006E400BC008030033AF200803071067202031DB0
:1006F4007D2B70085D3C0318822B0430BD00AF2BAA
:100704008030023AF00080303C067002031D8C2BCE
:100714003B08453C0318912B0130BD00AF2B8030C2
:10072400013AF00080303C067002031D9B2B3B080D
:100734005F3C0318A02B0230BD00AF2B8030F000CB
:1007440080303C067002031DA92B3B08653C03184E
:10075400AE2B0330BD00AF2BBD011A30FC00F830C6
:10076400FD00FD0BB32BFC0BB32B00003D088312E3
:100774006E06031DBF2BF001E32B83163D08831285
:10078400EE0083163D08003A0319E22B3D08033AB4
:100794000319D12B3D08043A0319D12BDE2B831204
:1007A40087178230FC00DD30FD00FD0BD72BFC0BDE
:1007B400D72B00000000871383163D08F000E32BBD
:0407C400F001080038
:1007C800013083160313BE000130BF005D30C00046
:1007D80095210230BE000130BF00A030C000952135
:1007E80083123B08003A0319012C071301308316C2
:0C07F800CC004A208316A401A5010800D3
:100804008E218A110A128000840AAF0A0319B00AE1
:08081400F003031D022C080093
:10081C006730831603138F000130831203179E0079
:10082C009F01013083160313850086018701831213
:10083C008501860187010230831681008330831283
:10084C0081008B168B1717210130CC004A200C30FD
:08085C008316CC004A200800BD
:10086400013083160313BE000130BF004D30C000B9
:1008740095210230BE000130BF003C30C0009521FC
:1008840083123B08013A031D562C80305706F000B2
:100894008030033A7002031D512CE73056020318CE
:1008A400562CD60A0319D70A3B08023A031D692CB1
:1008B4008030F000803057067002031D632C560808
:1008C400003C0318692C0130D602031CD7033B08F3
:1008D400033A031D852C8030F000803057067002E7
:1008E400031D762C5608003C0318852CD401D50131
:1008F400D201D30101308316CC004A200130831683
:10090400A4000030A500831256088316BE0083128B
:1009140057088316BF00B130C000D621B130BE00E5
:1009240052227008C0000130BE000630BF0095217D
:080934005830BE00402208000B
:10093C002A250E246A23831203137008BB0000308F
:10094C0083162506031DAC2C00302406031DB02C89
:10095C003224C52C00302506031DB62C013024068C
:10096C00031DBA2C7E22C52C0030831603132506DA
:10097C00031DC22C02302406031DC52CE423A02C1D
:02098C00C62C77
:100A5400213084004D3083120313F000CC30831610
:100A6400AF000430B0000224A0308400043003132B
:100A7400F00024308316AF000530B00002246E303D
:100A8400840001300313F00028308316AF000530D2
:100A9400B0000224A43084000B300313F00019309A
:100AA4008316AF000530B00002246F30840001309B
:100AB4000313F00003308316AF000030B0000224AB
:020AC400080028
:02000600403484
:10099800523475346E343A342034203420340034E0
:1009A800503461347534733461343A34203400344B
:0A09B8005334653474343A340034CB
:0A09C2002034733420342034003454
:0209CC000034F5
:1009CE0041346A3475347334743465342034653488
:1009DE006C3420347434693465346D3470346F344F
:0209EE000034D3
:0A09F0005334653474343A34003493
:0409FA000034003491
:0409FE00003400348D
:040A02000034003488
:0A0A0600203473342034203400340F
:100A10005434493445344D3450344F3420345434F4
:100A2000453452344D3449344E34413444344F34D7
:020A3000003490
:040A32000034003458
:0A0A360020347334203420340034DF
:040A4000003400344A
:040A44000034003446
:080A4800463449344E340034F9
:020A5000003470
:02400E00D400DC
:00000001FF
