:02000000D12C01
:0400060000000800EE
:0C000A001030FD00FD0B0728000008006E
:100016000830FC002330FD00FD0B0F28FC0B0F28D9
:020026000800D0
:100028002300ED1B1A2822008D111C2822008D1593
:1000380023006D1B222822000D11242822000D15F3
:100048002300ED1A2A2822008D102C2822008D1456
:1000580023006D1A322822000D10342822000D14B6
:1000680021006D183A2822000D163C2822000D1296
:100078008D1603208D122300ED19452822008D11BD
:10008800472822008D1523006D194D2822000D11D7
:100098004F2822000D152300ED18552822008D1039
:1000A800572822008D1423006D185D2822000D109A
:1000B8005F2822000D1421006D18652822000D16F6
:1000C800672822000D128D1603208D1221006D1C49
:0A00D8006F280B2070280520080097
:1000E20021006D1022006F082300ED001420210072
:0400F2006D14080081
:1000F6008C2880302300E9009E28C030E9009E2825
:100106009430E9009E28D430E9009E288030E9002A
:100116009E2823006908013A03197C286908023AD7
:10012600031980286908033A031983286908043AE1
:100136000319862889286A03F0006908F007700801
:10014600E9007008ED00142021006D10EF016F0822
:1001560023006B07840000306C3D850000080319FE
:10016600C22821006F0823006B07840000306C3D15
:10017600850000082200EF007120EF0AAA2821005E
:040186006D140800EC
:10018A0021008D120D120D108D100D118D112200EE
:10019A008D120D128D110D118D100D100B200B20CB
:1001AA000B208D140D148D1603208D120B208D1625
:1001BA0003208D120B208D1603208D120B200D109B
:1001CA008D1603208D120B208D1603208D128D1093
:1001DA008D158D1603208D120B208D110D148D1681
:1001EA0003208D120D108D1603208D120B208D16F3
:1001FA0003208D120D148D1603208D120B200D1065
:10020A008D1603208D128D150D158D140D148D1656
:0C021A0003208D120B2021006D14080041
:100226002100EF0122000C148C100C118C110330EC
:10023600FC009730FD00FD0B1E29FC0B1E2900005B
:10024600000020000C1E2A2931302100EF0020007A
:100256000C1F302932302100EF0020008C1F362978
:1002660033302100EF0022000C108C140C118C117D
:100276000330FC009730FD00FD0B3F29FC0B3F29A6
:100286000000000020000C1E4B2934302100EF0036
:1002960020000C1F512935302100EF0020008C1F53
:1002A600572936302100EF0022000C108C100C1557
:1002B6008C110330FC009730FD00FD0B6029FC0B10
:1002C60060290000000020000C1E6C293730210038
:1002D600EF0020000C1F722938302100EF002000AB
:1002E6008C1F782939302100EF0022000C108C1069
:1002F6000C118C150330FC009730FD00FD0B812995
:10030600FC0B81290000000020000C1E8D292A30DC
:100316002100EF0020000C1F932930302100EF0050
:1003260020008C1F992923302100EF0022000C1099
:0E0336008C100C118C1121006F08F0000800D3
:10034400B32980302300E900C529C030E900C5295C
:100354009430E900C529D430E900C5298030E9008A
:10036400C52923006908013A0319A3296908023A37
:100374000319A7296908033A0319AA296908043A41
:100384000319AD29B0296A03F0006908F007700861
:10039400E90021006D1470082300ED0014202100F1
:1003A4006D1023006B08ED00142021006D1408006B
:1003B40022000D138D1321006E08013A031DED294F
:1003C40001302300E9000130EA00A030EB000030E6
:1003D400EC007B20F72901302300E9000130EA001A
:1003E4005230EB000030EC007B2002302300E900A7
:1003F4000130EA004130EB000130EC007B2063085F
:10040400233A031D852A01302300ED001420132113
:1004140070082000EE007008003A0319192A6E08CB
:100424006D060319192A6E082100E3001B2A210016
:10043400E30120006E08ED0021006E08013A031D5F
:10044400312A22000D178D1301302300E9000130F9
:10045400EA005230EB000130EC007B203E2A2200FF
:100464000D138D1701302300E9000130EA00A0309C
:10047400EB000130EC007B2002302300E900013066
:10048400EA00D330EB000130EC007B206308233A10
:10049400031D7B2A22000D138D1301302300ED0070
:1004A400142001302300E9000130EA00C230EB00DF
:1004B4000130EC007B2002302300E9000130EA0027
:1004C400B130EB000130EC007B201A30FB005E30D1
:1004D400FC006E30FD00FD0B6D2AFC0B6D2AFB0B3E
:1004E4006D2A00002000EF0101302300ED001420EC
:1004F400852A1A30FC00F830FD00FD0B7F2AFC0B26
:080504007F2A0000092A08000B
:10050C0001302300E9000130EA004130EB000230F9
:10051C00EC007B2002302300E9000130EA00E430DB
:10052C00EB000030EC007B206208003C0318A72A8B
:10053C0002302300E9000930EA002A30EB00A22146
:10054C00AF2A02302300E9000930EA005F30EB00EB
:10055C00A2216208013C0318BC2A02302300E900E6
:10056C000A30EA002A30EB00A221C42A0230230010
:10057C00E9000A30EA005F30EB00A2216208023C7D
:10058C000318D12A02302300E9000B30EA002A308C
:10059C00EB00A221D92A02302300E9000B30EA003B
:1005AC005F30EB00A2216208033C0318E62A0230FC
:1005BC002300E9000C30EA002A30EB00A221EE2ADD
:1005CC0002302300E9000C30EA005F30EB00A2217E
:1005DC006308233A031D202B6208003A031D202BCD
:1005EC0001302300ED00142001302300E90001301C
:1005FC00EA002030EB000230EC007B2002302300BC
:10060C00E9000130EA00C130EB000030EC007B2047
:10061C000B30FB002630FC005D30FD00FD0B142B75
:10062C00FC0B142BFB0B142B0000000001302300DF
:10063C00ED001420303021006302031C9E2B630854
:10064C00393C031C9E2BE430860001308700620885
:10065C0086070318870A63088100E20A6208043AD5
:10066C00031D9E2B0230FB008630FC009930FD00F0
:10067C00FD0B3E2BFC0B3E2BFB0B3E2B01302300CA
:10068C00ED00142023006408313A031D5F2B65082C
:10069C00323A031D5F2B6608333A031D5F2B670844
:1006AC00343A031D5F2B01302000E3000330EF00D0
:1006BC00982B23006408343A031D762B6508333AD3
:1006CC00031D762B6608323A031D762B6708313AE8
:1006DC00031D762B02302000E3000430EF00982B32
:1006EC0001302300E9000130EA00D230EB00003089
:1006FC00EC007B2002302300E9000130EA003030AE
:10070C00EB000130EC007B200B30FB002630FC00B2
:10071C005D30FD00FD0B902BFC0B902BFB0B902BFD
:10072C00000000002100E20101302300ED00142044
:02073C000800B3
:10073E0001302300E9000130EA006330EB000130A4
:10074E00EC007B2002302300E9000130EA0031305A
:10075E00EB000230EC007B2063082A3A031DC02B0D
:10076E0001302000EF002100E20101302300ED00F6
:04077E00142008003B
:1007820001302300E9000130EA002030EB000130A3
:10079200EC007B2002302300E9000130EA006430E3
:1007A200EB000030EC007B206208003C0318E22BD7
:1007B20002302300E9000930EA002A30EB00A221CE
:1007C200EA2B02302300E9000930EA005F30EB0037
:1007D200A2216208013C0318F72B02302300E90032
:1007E2000A30EA002A30EB00A221FF2B023023005C
:1007F200E9000A30EA005F30EB00A2216208023C05
:1008020003180C2C02302300E9000B30EA002A30D6
:10081200EB00A221142C02302300E9000B30EA0085
:100822005F30EB00A2216208033C0318212C023046
:100832002300E9000C30EA002A30EB00A221292C27
:1008420002302300E9000C30EA005F30EB00A22105
:1008520030306302031CB02C6308393C031CB02CFB
:10086200E430860001308700620886070318870A91
:1008720063088100E20A6208043A031DB02C0230C8
:10088200FB008630FC009930FD00FD0B462CFC0B72
:10089200462CFB0B462C01302300ED0014202300D4
:1008A2006408383A031D862C6508303A031D862CED
:1008B2006608303A031D862C6708383A031D862CD9
:1008C2000130E9000130EA00B130EB000030EC0009
:1008D2007B2002302300E9000130EA004230EB00C5
:1008E2000030EC007B200B30FB002630FC005D303A
:1008F200FD00FD0B7A2CFC0B7A2CFB0B7A2C0000F2
:10090200000002302000EF00AA2C01302300E90091
:100912000130EA003130EB000030EC007B20023085
:100922002300E9000130EA002030EB000030EC0047
:100932007B200B30FB002630FC005D30FD00FD0B00
:10094200A02CFC0BA02CFB0BA02C00000000200014
:10095200EF012100E20101302300ED001420080024
:1009620012001E00F003031DB12CF103031DB12C74
:0209720008007B
:1009740068302100990023008C018D01D0302100C2
:100984008C008D0122008C018D01C52001302300D3
:0E099400ED0014200C302300ED0014200800AC
:1009A2007E26BA24132170082000EE007008003A57
:1009B2000319E32C6E086D060319E32C6E0821005F
:1009C200E300E52C2100E30120006E08ED00F92C84
:1009D2009F230E2DC1230E2D86220E2D01302100C4
:1009E200EE00DA210E2D02302100EE00DA210E2D6A
:1009F20020006F08003A0319E92C6F08013A031925
:100A0200EB2C6F08023A0319ED2C6F08033A031915
:100A1200EF2C6F08043A0319F42C1A30FC00F8305A
:100A2200FD00FD0B122DFC0B122D0000D32C182DF6
:100CFC00A3308400853085004330F0000130F100D2
:100D0C002030860000308700B12407308400863004
:100D1C0085002130F0000130F100A0308600003059
:100D2C008700B1247C308400863085000130F000CF
:100D3C000130F1006330860000308700B124E630CA
:100D4C008400853085002130F0000130F100C13085
:100D5C00860000308700B1246F3084008630850017
:100D6C000930F0000130F10064308600003087005B
:100D7C00B12460308400853085004330F0000130B0
:100D8C00F1002030860001308700B12478308400D7
:100D9C00863085000230F0000130F1006D308600A5
:100DAC0000308700B1241C3084008530850044302D
:100DBC00F0000130F100A030860001308700B12432
:100DCC0028308400863085001130F0000130F100AD
:100DDC002030860002308700B1247A3084008630BF
:100DEC0085000130F0000130F1006F3086000030DA
:100DFC008700B1247B308400863085000130F00000
:100E0C000130F100E230860000308700B124493017
:100E1C008400863085001030F0000130F100313054
:100E2C00860002308700B12465308400863085004E
:100E3C000A30F0000130F100E3308600003087000A
:100E4C00B12459308400863085000C30F00001301C
:100E5C00F1006330860001308700B1243930840002
:100E6C00863085001030F0000130F10041308600F2
:080E7C0002308700B1240800D8
:100A38004D346F3474346F347234203469347A34FA
:100A480071347534693465347234643461342034F3
:020A5800003468
:100A5A0056346F346C347634693465346E346434A5
:100A6A006F3420346D3465346E3475342034203458
:020A7A00003446
:100A7C00533469347334743465346D3461342034D4
:100A8C0064346534743465346E34693464346F346E
:020A9C00003424
:100A9E00233420347034613472346134203464343D
:100AAE006534743465346E346534723420342034D5
:020ABE00003402
:100AC00044346934673469347434653420346334AD
:100AD0006C3461347634653420342034203400346E
:100AE00049346E34743465346E347434653420346F
:100AF0006F347434723461342034763465347A342B
:020B00000034BF
:100B0200503475346C3473346534203423342034D7
:100B12002034203420342034203420342034203433
:020B220000349D
:100B24004D346F3474346F34723420346434653427
:100B340072346534633468346134203420342034AE
:020B440000347B
:100B46005634753465346C3476346134203461340B
:100B5600203469346E3469346334693461347234F0
:020B6600003459
:100B680043346C34613476346534203469346E34FB
:100B780063346F347234723465346334743461347A
:020B8800003437
:100B8A004534733470346534723465342E342E34FB
:100B9A002E342034203420342034203420340034BD
:100BAA004F347234643465346E34203469347A34A0
:100BBA007134753469346534723464346134203480
:020BCA000034F5
:100BCC004E346F34203473346534203465346A34D5
:100BDC0065346334753474346134203420342034F7
:020BEC000034D3
:100BEE004F347234643465346E34203469346E3468
:100BFE00763461346C3469346434613420340034B6
:100C0E004F347234643465346E3420346434653455
:100C1E0072346534633468346134203420342034C3
:020C2E00003490
:100C3000413463346334653473346F342034633443
:100C40006F34723472346534633474346F34003406
:100C5000533469346E3420346F3472346434653400
:100C60006E342034763461346C34693464346134E5
:020C700000344E
:100C72004D3465346E347534203464346534203434
:100C82006F347234643465346E34653473340034D2
:100C92005034613472346134203469346E346734D0
:100CA2007234653473346134723420342034003445
:100CB200503472346534733469346F346E3465344D
:080CC20020342A3420340034F0
:020CCA000034F4
:100CCC00413463346334653473346F343A342034D0
:020CDC000034E2
:100CDE00413463346334653473346F343A342034BE
:020CEE000034D0
:020CF0000034CE
:020CF2000034CC
:020CF4000034CA
:020CF6000034C8
:020CF8000034C6
:020000040001F9
:04000E00A4291316F8
:00000001FF
