:020000006F2867
:0E000600073083120313FD00FD0B07280800CE
:0E0014008312031324088A00230882000800C8
:10002200FF3083120313A700FF30A800FF30A9009E
:10003200FF30C3309F052209F00070089F05F030A1
:0C00420083169F0483129F171F140800F0
:10004E00C330831203139F052209F00070089F0529
:10005E00F03083169F0483129F172A08F000F00DCC
:10006E007010F00D701070089F041F1403209F1461
:10007E009F1C432800003F281F101E08F100F001AE
:0C008E0083161E08F0040030F104080086
:10009A000A208A110A128000840AA30A0319A40AF0
:0800AA00F003031D4D280800BE
:1000B2006730831603138F000130831203179E00EB
:1000C2009F010130831603138500860120308700CB
:0C00D200831285018601870111200800BF
:1000DE00E8205920871E89288230FC00DD30FD0083
:1000EE00FD0B7728FC0B7728000000002008210468
:1000FE000130031D0030A000A1000030A100871EBA
:10010E008928862800302106031D8F2801302006FD
:10011E00031DD328AA01272070088312A500710899
:10012E00A600E030870080307106F2008030720247
:10013E00031DA328CD3070020318A7280714D22858
:10014E0080302606F0008030013A7002031DB1287F
:10015E009A3025020318B5288714D2288030260637
:10016E00F0008030023A7002031DBF28673025026E
:10017E000318C3280715D22880302606F0008030D9
:10018E00033A7002031DCD28343025020318D128FE
:10019E008715D2280716D528E03087001A30FC00C4
:1001AE00F830FD00FD0BD928FC0BD9280000712872
:0201BE00DF2838
:1001D00020308400033083120313F000E530A300C5
:0801E0000030A4004D200800CE
:0401CA0001340034C8
:0201CE004034BB
:02400E00D400DC
:00000001FF
